{
  "contractName": "Poll",
  "abi": [
    {
      "inputs": [],
      "payable": false,
      "stateMutability": "nonpayable",
      "type": "constructor"
    },
    {
      "constant": true,
      "inputs": [],
      "name": "c1",
      "outputs": [
        {
          "internalType": "string",
          "name": "",
          "type": "string"
        }
      ],
      "payable": false,
      "stateMutability": "view",
      "type": "function"
    },
    {
      "constant": true,
      "inputs": [],
      "name": "opCount",
      "outputs": [
        {
          "internalType": "uint256",
          "name": "",
          "type": "uint256"
        }
      ],
      "payable": false,
      "stateMutability": "view",
      "type": "function"
    },
    {
      "constant": true,
      "inputs": [
        {
          "internalType": "string",
          "name": "",
          "type": "string"
        }
      ],
      "name": "polls",
      "outputs": [
        {
          "components": [
            {
              "internalType": "uint256",
              "name": "n",
              "type": "uint256"
            },
            {
              "internalType": "string",
              "name": "opt",
              "type": "string"
            },
            {
              "internalType": "uint256",
              "name": "count",
              "type": "uint256"
            }
          ],
          "internalType": "struct Poll.option",
          "name": "opt1",
          "type": "tuple"
        },
        {
          "components": [
            {
              "internalType": "uint256",
              "name": "n",
              "type": "uint256"
            },
            {
              "internalType": "string",
              "name": "opt",
              "type": "string"
            },
            {
              "internalType": "uint256",
              "name": "count",
              "type": "uint256"
            }
          ],
          "internalType": "struct Poll.option",
          "name": "opt2",
          "type": "tuple"
        },
        {
          "components": [
            {
              "internalType": "uint256",
              "name": "n",
              "type": "uint256"
            },
            {
              "internalType": "string",
              "name": "opt",
              "type": "string"
            },
            {
              "internalType": "uint256",
              "name": "count",
              "type": "uint256"
            }
          ],
          "internalType": "struct Poll.option",
          "name": "opt3",
          "type": "tuple"
        },
        {
          "components": [
            {
              "internalType": "uint256",
              "name": "n",
              "type": "uint256"
            },
            {
              "internalType": "string",
              "name": "opt",
              "type": "string"
            },
            {
              "internalType": "uint256",
              "name": "count",
              "type": "uint256"
            }
          ],
          "internalType": "struct Poll.option",
          "name": "opt4",
          "type": "tuple"
        }
      ],
      "payable": false,
      "stateMutability": "view",
      "type": "function"
    },
    {
      "constant": false,
      "inputs": [
        {
          "internalType": "string",
          "name": "_code",
          "type": "string"
        },
        {
          "internalType": "string",
          "name": "_op1",
          "type": "string"
        },
        {
          "internalType": "string",
          "name": "_op2",
          "type": "string"
        },
        {
          "internalType": "string",
          "name": "_op3",
          "type": "string"
        },
        {
          "internalType": "string",
          "name": "_op4",
          "type": "string"
        }
      ],
      "name": "newPoll",
      "outputs": [],
      "payable": false,
      "stateMutability": "nonpayable",
      "type": "function"
    },
    {
      "constant": false,
      "inputs": [
        {
          "internalType": "string",
          "name": "code",
          "type": "string"
        }
      ],
      "name": "getOpt1",
      "outputs": [
        {
          "components": [
            {
              "internalType": "uint256",
              "name": "n",
              "type": "uint256"
            },
            {
              "internalType": "string",
              "name": "opt",
              "type": "string"
            },
            {
              "internalType": "uint256",
              "name": "count",
              "type": "uint256"
            }
          ],
          "internalType": "struct Poll.option",
          "name": "",
          "type": "tuple"
        }
      ],
      "payable": false,
      "stateMutability": "nonpayable",
      "type": "function"
    },
    {
      "constant": false,
      "inputs": [
        {
          "internalType": "string",
          "name": "code",
          "type": "string"
        }
      ],
      "name": "getOpt2",
      "outputs": [
        {
          "components": [
            {
              "internalType": "uint256",
              "name": "n",
              "type": "uint256"
            },
            {
              "internalType": "string",
              "name": "opt",
              "type": "string"
            },
            {
              "internalType": "uint256",
              "name": "count",
              "type": "uint256"
            }
          ],
          "internalType": "struct Poll.option",
          "name": "",
          "type": "tuple"
        }
      ],
      "payable": false,
      "stateMutability": "nonpayable",
      "type": "function"
    },
    {
      "constant": false,
      "inputs": [
        {
          "internalType": "string",
          "name": "code",
          "type": "string"
        }
      ],
      "name": "getOpt3",
      "outputs": [
        {
          "components": [
            {
              "internalType": "uint256",
              "name": "n",
              "type": "uint256"
            },
            {
              "internalType": "string",
              "name": "opt",
              "type": "string"
            },
            {
              "internalType": "uint256",
              "name": "count",
              "type": "uint256"
            }
          ],
          "internalType": "struct Poll.option",
          "name": "",
          "type": "tuple"
        }
      ],
      "payable": false,
      "stateMutability": "nonpayable",
      "type": "function"
    },
    {
      "constant": false,
      "inputs": [
        {
          "internalType": "string",
          "name": "code",
          "type": "string"
        }
      ],
      "name": "getOpt4",
      "outputs": [
        {
          "components": [
            {
              "internalType": "uint256",
              "name": "n",
              "type": "uint256"
            },
            {
              "internalType": "string",
              "name": "opt",
              "type": "string"
            },
            {
              "internalType": "uint256",
              "name": "count",
              "type": "uint256"
            }
          ],
          "internalType": "struct Poll.option",
          "name": "",
          "type": "tuple"
        }
      ],
      "payable": false,
      "stateMutability": "nonpayable",
      "type": "function"
    }
  ],
  "bytecode": "0x60806040526040518060400160405280600581526020017f68656c6c6f000000000000000000000000000000000000000000000000000000815250600090805190602001906200005192919062000066565b503480156200005f57600080fd5b5062000115565b828054600181600116156101000203166002900490600052602060002090601f016020900481019282601f10620000a957805160ff1916838001178555620000da565b82800160010185558215620000da579182015b82811115620000d9578251825591602001919060010190620000bc565b5b509050620000e99190620000ed565b5090565b6200011291905b808211156200010e576000816000905550600101620000f4565b5090565b90565b61137980620001256000396000f3fe608060405234801561001057600080fd5b50600436106100885760003560e01c80638058316a1161005b5780638058316a14610127578063ac23e8a21461015a578063c1e62c121461018a578063cb58065f146101ba57610088565b80631ec624081461008d5780632bee3d32146100a95780635f57697c146100d95780636f33252e146100f7575b600080fd5b6100a760048036036100a29190810190610eea565b6101d8565b005b6100c360048036036100be9190810190610ea9565b6103f1565b6040516100d09190611173565b60405180910390f35b6100e1610528565b6040516100ee9190611151565b60405180910390f35b610111600480360361010c9190810190610ea9565b6105c6565b60405161011e9190611173565b60405180910390f35b610141600480360361013c9190810190610e68565b6106b7565b6040516101519493929190611195565b60405180910390f35b610174600480360361016f9190810190610ea9565b6109fd565b6040516101819190611173565b60405180910390f35b6101a4600480360361019f9190810190610ea9565b610aee565b6040516101b19190611173565b60405180910390f35b6101c2610bdf565b6040516101cf91906111f6565b60405180910390f35b6000600190506101e6610be5565b604051806060016040528083806001019450815260200187815260200160008152509050610212610be5565b60405180606001604052808480600101955081526020018781526020016000815250905061023e610be5565b60405180606001604052808580600101965081526020018781526020016000815250905061026a610be5565b604051806060016040528086815260200187815260200160008152509050610290610c06565b848160006004811061029e57fe5b60200201819052506102ae610c33565b60405180608001604052808781526020018681526020018581526020018481525090508060028d6040516102e2919061113a565b908152602001604051809103902060008201518160000160008201518160000155602082015181600101908051906020019061031f929190610c73565b5060408201518160020155505060208201518160030160008201518160000155602082015181600101908051906020019061035b929190610c73565b50604082015181600201555050604082015181600601600082015181600001556020820151816001019080519060200190610397929190610c73565b506040820151816002015550506060820151816009016000820151816000015560208201518160010190805190602001906103d3929190610c73565b50604082015181600201555050905050505050505050505050505050565b6103f9610be5565b600282604051610409919061113a565b90815260200160405180910390206000016001016000908054600181600116156101000203166002900461043e929190610cf3565b5060028260405161044f919061113a565b908152602001604051809103902060000160405180606001604052908160008201548152602001600182018054600181600116156101000203166002900480601f01602080910402602001604051908101604052809291908181526020018280546001816001161561010002031660029004801561050e5780601f106104e35761010080835404028352916020019161050e565b820191906000526020600020905b8154815290600101906020018083116104f157829003601f168201915b505050505081526020016002820154815250509050919050565b60008054600181600116156101000203166002900480601f0160208091040260200160405190810160405280929190818152602001828054600181600116156101000203166002900480156105be5780601f10610593576101008083540402835291602001916105be565b820191906000526020600020905b8154815290600101906020018083116105a157829003601f168201915b505050505081565b6105ce610be5565b6002826040516105de919061113a565b908152602001604051809103902060090160405180606001604052908160008201548152602001600182018054600181600116156101000203166002900480601f01602080910402602001604051908101604052809291908181526020018280546001816001161561010002031660029004801561069d5780601f106106725761010080835404028352916020019161069d565b820191906000526020600020905b81548152906001019060200180831161068057829003601f168201915b505050505081526020016002820154815250509050919050565b6002818051602081018201805184825260208301602085012081835280955050505050506000915090508060000160405180606001604052908160008201548152602001600182018054600181600116156101000203166002900480601f0160208091040260200160405190810160405280929190818152602001828054600181600116156101000203166002900480156107935780601f1061076857610100808354040283529160200191610793565b820191906000526020600020905b81548152906001019060200180831161077657829003601f168201915b50505050508152602001600282015481525050908060030160405180606001604052908160008201548152602001600182018054600181600116156101000203166002900480601f0160208091040260200160405190810160405280929190818152602001828054600181600116156101000203166002900480156108595780601f1061082e57610100808354040283529160200191610859565b820191906000526020600020905b81548152906001019060200180831161083c57829003601f168201915b50505050508152602001600282015481525050908060060160405180606001604052908160008201548152602001600182018054600181600116156101000203166002900480601f01602080910402602001604051908101604052809291908181526020018280546001816001161561010002031660029004801561091f5780601f106108f45761010080835404028352916020019161091f565b820191906000526020600020905b81548152906001019060200180831161090257829003601f168201915b50505050508152602001600282015481525050908060090160405180606001604052908160008201548152602001600182018054600181600116156101000203166002900480601f0160208091040260200160405190810160405280929190818152602001828054600181600116156101000203166002900480156109e55780601f106109ba576101008083540402835291602001916109e5565b820191906000526020600020905b8154815290600101906020018083116109c857829003601f168201915b50505050508152602001600282015481525050905084565b610a05610be5565b600282604051610a15919061113a565b908152602001604051809103902060060160405180606001604052908160008201548152602001600182018054600181600116156101000203166002900480601f016020809104026020016040519081016040528092919081815260200182805460018160011615610100020316600290048015610ad45780601f10610aa957610100808354040283529160200191610ad4565b820191906000526020600020905b815481529060010190602001808311610ab757829003601f168201915b505050505081526020016002820154815250509050919050565b610af6610be5565b600282604051610b06919061113a565b908152602001604051809103902060030160405180606001604052908160008201548152602001600182018054600181600116156101000203166002900480601f016020809104026020016040519081016040528092919081815260200182805460018160011615610100020316600290048015610bc55780601f10610b9a57610100808354040283529160200191610bc5565b820191906000526020600020905b815481529060010190602001808311610ba857829003601f168201915b505050505081526020016002820154815250509050919050565b60015481565b60405180606001604052806000815260200160608152602001600081525090565b60405180608001604052806004905b610c1d610d7a565b815260200190600190039081610c155790505090565b6040518060800160405280610c46610d7a565b8152602001610c53610d7a565b8152602001610c60610d7a565b8152602001610c6d610d7a565b81525090565b828054600181600116156101000203166002900490600052602060002090601f016020900481019282601f10610cb457805160ff1916838001178555610ce2565b82800160010185558215610ce2579182015b82811115610ce1578251825591602001919060010190610cc6565b5b509050610cef9190610d9b565b5090565b828054600181600116156101000203166002900490600052602060002090601f016020900481019282601f10610d2c5780548555610d69565b82800160010185558215610d6957600052602060002091601f016020900482015b82811115610d68578254825591600101919060010190610d4d565b5b509050610d769190610d9b565b5090565b60405180606001604052806000815260200160608152602001600081525090565b610dbd91905b80821115610db9576000816000905550600101610da1565b5090565b90565b600082601f830112610dd157600080fd5b8135610de4610ddf8261123e565b611211565b91508082526020830160208301858383011115610e0057600080fd5b610e0b8382846112e3565b50505092915050565b600082601f830112610e2557600080fd5b8135610e38610e338261126a565b611211565b91508082526020830160208301858383011115610e5457600080fd5b610e5f8382846112e3565b50505092915050565b600060208284031215610e7a57600080fd5b600082013567ffffffffffffffff811115610e9457600080fd5b610ea084828501610dc0565b91505092915050565b600060208284031215610ebb57600080fd5b600082013567ffffffffffffffff811115610ed557600080fd5b610ee184828501610e14565b91505092915050565b600080600080600060a08688031215610f0257600080fd5b600086013567ffffffffffffffff811115610f1c57600080fd5b610f2888828901610e14565b955050602086013567ffffffffffffffff811115610f4557600080fd5b610f5188828901610e14565b945050604086013567ffffffffffffffff811115610f6e57600080fd5b610f7a88828901610e14565b935050606086013567ffffffffffffffff811115610f9757600080fd5b610fa388828901610e14565b925050608086013567ffffffffffffffff811115610fc057600080fd5b610fcc88828901610e14565b9150509295509295909350565b6000610fe4826112a1565b610fee81856112ce565b9350610ffe8185602086016112f2565b80840191505092915050565b600061101582611296565b61101f81856112ac565b935061102f8185602086016112f2565b61103881611325565b840191505092915050565b600061104e82611296565b61105881856112bd565b93506110688185602086016112f2565b61107181611325565b840191505092915050565b6000606083016000830151611094600086018261111c565b50602083015184820360208601526110ac828261100a565b91505060408301516110c1604086018261111c565b508091505092915050565b60006060830160008301516110e4600086018261111c565b50602083015184820360208601526110fc828261100a565b9150506040830151611111604086018261111c565b508091505092915050565b611125816112d9565b82525050565b611134816112d9565b82525050565b60006111468284610fd9565b915081905092915050565b6000602082019050818103600083015261116b8184611043565b905092915050565b6000602082019050818103600083015261118d818461107c565b905092915050565b600060808201905081810360008301526111af81876110cc565b905081810360208301526111c381866110cc565b905081810360408301526111d781856110cc565b905081810360608301526111eb81846110cc565b905095945050505050565b600060208201905061120b600083018461112b565b92915050565b6000604051905081810181811067ffffffffffffffff8211171561123457600080fd5b8060405250919050565b600067ffffffffffffffff82111561125557600080fd5b601f19601f8301169050602081019050919050565b600067ffffffffffffffff82111561128157600080fd5b601f19601f8301169050602081019050919050565b600081519050919050565b600081519050919050565b600082825260208201905092915050565b600082825260208201905092915050565b600081905092915050565b6000819050919050565b82818337600083830152505050565b60005b838110156113105780820151818401526020810190506112f5565b8381111561131f576000848401525b50505050565b6000601f19601f830116905091905056fea365627a7a723158206f4208148c2d6c373049afb95ebe26e343d9d0df6c55829035a32b4c740fbf876c6578706572696d656e74616cf564736f6c63430005100040",
  "source": "// SPDX-License-Identifier: MIT\npragma solidity >=0.4.2;\npragma experimental ABIEncoderV2;\ncontract Poll{\n    string public c1='hello';\n    uint public opCount;\n    struct option{\n        uint n;\n        string opt;\n        uint count;\n    }\n    struct poll{\n        //mapping(uint=>option) optionList;\n        option opt1;\n        option opt2;\n        option opt3;\n        option opt4;\n    }\n    mapping (string=>poll) public polls;\n    //mapping(uint=>option) optionList;\n    \n    \n    constructor () public{\n        \n    }\n    function newPoll(string memory _code, string memory _op1,string memory _op2,string memory _op3,string memory _op4) public{\n        uint optCount=1;\n        option memory op1=option(optCount++,_op1,0);\n        option memory op2=option(optCount++,_op2,0);\n        option memory op3=option(optCount++,_op3,0);\n        option memory op4=option(optCount,_op4,0);\n        option[4] memory optionList;\n        optionList[0]=op1;\n        poll memory p = poll(op1,op2,op3,op4);\n        polls[_code]=p;\n    }\n    function getOpt1 (string memory code) public returns(option memory) {\n        c1=(polls[code].opt1).opt;\n        return polls[code].opt1;\n    }\n    function getOpt2(string memory code) public returns(option memory) {\n        return polls[code].opt2;\n    }\n    function getOpt3(string memory code) public returns(option memory) {\n        return polls[code].opt3;\n    }\n    function getOpt4(string memory code) public returns(option memory) {\n        return polls[code].opt4;\n    }\n    // function getOpt1Count(string memory code) public {\n    //     opCount=(polls[code].opt1).count;\n    // }\n    // function getOpt2Count(string memory code) public {\n    //     opCount=(polls[code].opt2).count;\n    // }\n    // function getOpt3Count(string memory code) public {\n    //     opCount=(polls[code].opt3).count;\n    // }\n    // function getOpt4Count(string memory code) public {\n    //     opCount=(polls[code].opt4).count;\n    // }\n    //function vote()\n\n}",
  "sourcePath": "/home/kdesh2001/Desktop/Ethernals/poll/contracts/Poll.sol",
  "compiler": {
    "name": "solc",
    "version": "0.5.16+commit.9c3226ce.Emscripten.clang"
  },
  "schemaVersion": "3.4.6",
  "updatedAt": "2022-03-27T13:10:17.847Z",
  "networkType": "ethereum",
  "devdoc": {
    "methods": {}
  },
  "userdoc": {
    "methods": {}
  }
}